:2000000000400020D505010001C9011001C9011001C9011001C9011001C9011001C9011083
:1C00200001C9011001C9011001C9011001C9011001C9011001C901103FC9011089
:20003C002DE9F04FD44C04F124012046ADF1AC0D0FF06EFF04F154050021284600F0A8FD7A
:20005C00CE494FF47A7204F18000A56210F02CF9CB4D05F1180005F10C010CF0E9FEC9497F
:20007C00A86013F0C4F8C84EA8684FF4E0213246521E11F0ABF9A8684FF4E021324611F0D9
:20009C00A5F9C24EA8684FF0C0513246521E11F09DF9A8684FF0C051324611F097F9BC4949
:2000BC00C82205F1240010F0FFF8BA48002168604FF080400FF00AFAB84EB74DE0610222CD
:2000DC004FF47A63082031466870102008F00AFE102003224FF47A63314608F003FEB04860
:2000FC0000221523AF490090102008F0FBFD0027B84601208DF8567003468DF855004FF4EB
:20011C008062A94E8DF8578019460DF155078DF8581010200097314608F0E4FD0DF156007D
:20013C0040F20242012300903146102008F0DAFD0DF1570040F203420123009031461020DC
:20015C0008F0D0FD16A840F20642012300903146102008F0C7FDD549102008F0C3FD2078D1
:20017C0011F03CFDD2490246102008F0BBFDD14910204FF0FF3208F0B5FDCF4910204FF0FB
:20019C00FF3208F0AFFD04F14000A860287811F025FD0246687805F1160705F126060823E6
:2001BC000090C64901971020029605F10C07039708F098FDC24904F14C02102008F092FDEF
:2001DC00207811F00BFDBF490246102008F08AFDE0694146D6A30A4611F0B7FE03258DF867
:2001FC002C5001208DF82000CDF8288004268DF82D60374684F859724FF0F04109919DF895
:20021C002C20C4F854129DF8200084F85822DFF830B384F8080201281BD0002840F0CA80B3
:20023C0004F59C721E200D2182F8FA00042582F8FC10464684F83652142782F8FD60FF204B
:20025C0004F23D2182F8FB007F1E01F8010BFBD1B0E004F59C705D4600F1D4014646C5F804
:20027C00AC1005F5A2731E7195F8491100F1DC072A2266F3010185F8491195F84911EF6594
:20029C0066F3830185F8491105F5A277A5F84A21BB49C0F8D47081460B6007F134023A6079
:2002BC009DF82D30C0F8D8609DF82C20C5F8447143EA02210EAF0D23A0F8F4100121A0F85A
:2002DC00F6103846A4F8303212F073FF04208DF8380032238DF83C603946D4F87002ADF853
:2002FC003A300BF031FDA74FC4F86C020CA8C7F8008013F083F8A4490D9AD4F86C02B2FB43
:20031C00F1F1491E13F036F85F20A04E6B68F06213B90FF065F968600E204FF06E4112F0A6
:20033C00FBF84FF0010A4D20C7F8F0AC4FF06A413060092012F0F0F8D4F85452002D39D067
:20035C00FE20119011A909F594700CF071FD1A9085B3DFF83C9257461A98B5FA85F6C6F1E5
:20037C001F0649EA060111910EF0CAFEF0B907FA06F04540F0D11DE0F0040020AD2F0100C6
:20039C00F4160020D90F01000E0005800E0000104D2E010039330100D00B0020551501002E
:2003BC001A59010005E70000B967000015B11A9812F0E1F95D4605F19006304602F090FE28
:2003DC00C5F8908005F58C70C5F8A48005F1380105F1D0023346C5F8E40004F5A07002F051
:2003FC0089FB05F1080604F59C716A4A08606A4F6A4D426105F10C03216218462A78A9688B
:20041C00376012F0FFFA66488168027800F10C03184612F0F7FA634F10200246394608F02B
:20043C0061FC216A1122A1F846011020394608F059FC042584F8485006F5B8731A9306F1A2
:20045C00EC021B926FF036076764216AA1F84401606A554A00214FF0FF3300F09DFB00286A
:20047C002090F5D00020109015A910AA0DF1520011F0FEF8A0B9BDF8520010280CD120785F
:20049C009DF85410884207D1109801884FF6FF728A4201D004F0F2F8109808B112F092FF4F
:2004BC002098C00FC0F0FD82F5E2C046C9D80000B53201000D230100F525010099FD000022
:2004DC004528010031810110A06A054600F068FB854208BF002702D0876810F029FF38460B
:2004FC000028219000F0D7823D46E1892888401E00F0C882401E00F0C182801E00F09A824E
:20051C00001F00F04D82083850D0103840F0C0823846E16B4068490802462CD3007800281D
:20053C0029D1667B67796EB9012F22D023E0C046416F4120526563656976657200C046C086
:20055C00100E0020BFB192F9050011F00DF9616CA07911F1320F02DB01280AD028B111F156
:20057C00370F08DA38B1002000E001200DF06CFF01E005F0D5FF686810F0DAFE88E2C04603
:20059C00882700209000204290D00300483508400004C0A09D2C0100A9C300005014002038
:2005BC00DC1400200D2C0100030000C0AF786868002F229040F0DA81E079042818BF052826
:2005DC0040F0D481229D08A805F60C010A688988026020238180A9686E68687825919022AB
:2005FC00239037782496B3FBF7F11FFA81F827971A98337ACDF89880002128930DF087FD44
:20061C001B98002124220DF082FD0C35B8F1020FC0F28480012740461F97401E1E901F994F
:20063C00279E481E06FB01F7BB0170431D93800100261C902498C068077840781C9A29907E
:20065C0006EB071081001D988B185A19B2F90220EB5E09184819B0F90200695E09F09DFE8C
:20067C00DDF874801F9A2A90C14606EB071300212998009209EB8309019605EB090A06EB91
:20069C000010029108EB8008BAF90200039035F9090005EB080B0490BBF90200059035F991
:2006BC0008000690E0690022C8A3082111F04DFCBAF9020035F90910BBF9022035F90830FF
:2006DC0009F06BFE29997A000B4602EB8702890001EB8201FF1A48BF7F42DDF8A8C03BB296
:2006FC000CFB03F3279FDDF868C093FBF7F75CF80130DB191B18299F4CF801301B9BD21918
:20071C009856761CA02E00F10100985492DB1F981E9F401C1F90781E1E9080D1279830B36E
:20073C00002105460B461B9A1A98279FD218401812F901CB06687F1E96FBFCFC40F804CBFF
:20075C00F6D16D1E03F1060301F11801EBD12698279F0021401E259A126852F821307F1EF3
:20077C00B3FBF0F342F8213001F10101F3D1289818B3074600252499C96828010E18737864
:20079C00095C96F90820C80000EB011000EB83001A9B96F90910185800FB021010F042FDD6
:2007BC00F1680DF073FC10F021FD259949687F1E21F8150005F10105DDD1CB48259990F9FC
:2007DC007200239F087201264F7222988E7210F0AFFD0020C349C24D0870A87A002800F014
:2007FC00CD802846BD4D477AAE7A002E00F0C680B7F125014FF0000009D0491E04D0491E43
:20081C0014BF011C0F2104E06FF0040101E06FF009012A46567AB6F1250208D0521E03D0E1
:20083C00521E08BF0F2004E06FF0040001E06FF00900AB4A5268B2F90230B2F90020D21865
:20085C0002EBD27201EB62012D310BB26968B1F90220A34DB1F90010891801EBD171C0EB20
:20087C0061002D3802B2286841689C4D0068401840080FFA80FC28684168006840184008F2
:20089C0029460FFA80FE964D91F9081095F9080081420CDB94F86C00BC4B0225F4463746A4
:2008BC0023F81020134684F86D50084607E0B74A94F86C1022F81130012684F86D60A4F89A
:2008DC006E3084F87000A4F872C0B04A84F87470ADF82A3094F86C10B4F86E009446062722
:2008FC00002622F811003046A6673CF9021B7F1E0844FAD1A067062190FBF1F0A4F87C0050
:20091C0094F86C000528B4BF401C301C94F8745084F86C0094F970708DF8305094F86D30A8
:20093C008DF82C70B4F872608DF83130B4F87C00ADF82E600AA9ADF8280012AF0A68486858
:20095C003A600E89786012A93E810C2217A80CF0D5F90168189A199B08A80DF097F9002015
:20097C005F495E4D88720746AF7207E0042F05D1E069032100225DA311F0E7FA5948007826
:20099C0028B1229810F0D4FC564900200870E07904287DD1207900287AD005F0C1FD77E0B9
:2009BC0068680078884638B177480090E0690421002253A311F0C9FA734872494246002362
:2009DC000090102008F08EF9D5E5C0467B22725F6E756D52657073223A2025642C202269C8
:2009FC005F73616D706C65223A2025642C226964785F6E756D5061697273223A2025642C83
:200A1C0020202020224931223A2025642C202020225131223A2025642C2020202249322219
:200A3C003A2025642C202020225132223A2025640A7D00C06A68AF78E1691078AFB1012FDF
:200A5C000CD0022F07D0032F16D1002808BF30A30CD034A307E078B938A307E0002808BF3F
:200A7C003AA303D03DA3009000E041A308460022022111F06AFA6A6810467DE5A87803F0E1
:200A9C00B1F805E0686803F0F9FD686812F09AFC219810F04DFCA06A00F086F800283FF4B6
:200ABC0013AD20984008FFF4D3AC002001230746E28AA082E58923723E466782101FADF885
:200ADC0020002078268211F089F82D49009008AB2A46102008F006F9BAE4C046201B0020C9
:200AFC00141B00200F1C0020100E0020416F41204F7574206F66204D656D6F72792100C04A
:200B1C0050617373636F64653A20256400C046C0426F6E64207361766520737563636573E6
:200B3C007300C046426F6E642073617665206661696C65643A20256400C046C0426F6E641D
:200B5C00696E6720737563636573730050616972696E6720737563636573730050616972B3
:200B7C00696E67206661696C3A20256400C046C050616972696E67207374617274656400D5
:200B9C0089150100B517010040E2010050050020DFF800F0A1B60110DFF800F0F99B01109A
:200BBC00DFF800F019BD0110DFF800F04FBF01102DE9F84FDFF8744384B0676827B905B002
:200BDC00BDE8F04F00F0C0B93878DFF86483DFF864A3DFF8645301281CBF0228042841F641
:200BFC004C5B05D0402818BF802800F0BF8094E112F028FB0028FAD0387809F091F98146C1
:200C1C00D9F8046016B9002011F0B6FECB494878002800F0828006F08FFC12F031F90190B3
:200C3C000168009148464F680BF0CCFF02284BD099F80010022902D0042920D06DE105211F
:200C5C00297018B900F084F95844B0603069C17E01F0EF01C1763069C17E41F08001C17644
:200C7C003069C17E01F0F00141F00201C1760221B86882443069C0F820A0A17074E006218D
:200C9C00297018B900F064F95844B060AC480168887C00F061F93069C17E01F0EF01C1763A
:200CBC003069C17E41F08001C1763069C17E01F0F00141F00201C1760421B868824430698E
:200CDC00C0F820A0A1704FE000989E490278802A12D108232B700878012803D097494878D8
:200CFC00022803DB38690121C17210E0D8F828103A690878D0720AE00720287009783869B2
:200D1C0001290EBF0122D8F828104A78C27201988A4A817900989170FAE0B9F1000F15D027
:200D3C0099F800004F450DD102281DD0042805D183480168887C00F00FF915E0002011F035
:200D5C001BFE11E0022802D0042804D0E5E005202870022007E00620287079480168887CFA
:200D7C0000F0FAF80420A0704846D1E0DFF8CC9199F80100002800F0938006F0DDFB12F041
:200D9C007FF80290016899F8020001914E6812F077F8039012F05CFA10F0070F53D0A0783D
:200DBC0009F0BEF80090476801990BF00BFF022849D000990A78022A02D0042A1AD03FE0F7
:200DDC0005222A7018B900F0C3F85844B8603869C17E01F0EF01C1763869C17E41F080017C
:200DFC00C1763869C17E01F0F00141F00201C17602211DE00621297018B900F0A9F8584495
:200E1C00B8604F480168887C00F0A6F83869C17E01F0EF01C1763869C17E41F08001C1764B
:200E3C003869C17E01F0F00141F00201C1760421B06882443869C0F820A0A170009867E05D
:200E5C00002011F099FD03980299884226D001983C490278802A12D108232B700878012835
:200E7C0003D099F80110022903DB31690120C87210E0D8F8280032690178D1720AE0072093
:200E9C0028700978306901290EBF0122D8F828104A78C2720298817989F80210019837E095
:200EBC0012F0D6F910F0070F3DD0A07809F038F8064646F2A81930787768022802D00428ED
:200EDC0010D030E00520287000F042F809EB0001B86800F045F818B900F03AF85844B86036
:200EFC00022013E00620287000F032F809EB0001B86800F035F818B900F02AF85844B86020
:200F1C000F480168887C00F027F80420A070304605B0BDE8F04F0AF0C7BC05B0BDE8F04F89
:200F3C00002011F029BD05B0BDE8F08F1C270020FC5A0100F0D8FFFF6F4F0020684E002081
:200F5C00184F0020734F0020DFF800F03D710010DFF800F0B1970110DFF800F029780010EF
:200F7C00DFF800F0B997011038B504461948417808062ED5184D287870B1184A117859B9A8
:200F9C00032011F0D9F9010023D091220A70102048708C70287818E00C2011F0CDF9C0B13E
:200FBC0001210170FF21417000F1080141600421426811701021426851700121426891705D
:200FDC004168CC70014606480078BDE8344011F073BB31BD1C4E002097270020624F002094
:040FFC009627002014
:20100000B41200001810000015AB0110FDB301106DC00110FDAE011099B5011000000000F7
:08102000000000002D0000009B
:20102800B01200003C100000B1C00110A9BF011067C0011069B80110000000000000000035
:041048003000000074
:20104C00B012000060100000BDC00110CDB30110D9BD01106DB3011000000000000000005B
:04106C00310000004F
:2010700000000000741B002004000000000000000000000020000000E8C90110300000009B
:20109000281000007C1B00200400000000000000000000000C000000D8CA01101800000076
:2010B0004C100000841B002004000000000000000000000024000000F0CA011018000000FA
:2010D000000000008C1B00200400000000000000000000001000000018CA01102C00000006
:2010F000001000009C1B0020040000000000000000000000200000006CCA0110240000006A
:20111000FFFFFFFFA41B00200400000000000000000000002800000090CA01102400000029
:20113000FFFFFFFFAC1B00200400000000000000000000001400000008CB011018000000A8
:20115000FFFFFFFFB41B002004000000000000000000000058000000B4C901103400000076
:20117000FFFFFFFFBC1B00200400000000000000000000001000000020CB01101800000044
:20119000FFFFFFFFC41B00200400000000000000000000001C000000B4CA01102400000071
:2011B000FFFFFFFFCC1B00200400000000000000000000003800000044CA01102800000099
:2011D000FFFFFFFFD41B00200400000000000000000000005400000078C901103C0000000E
:0811F00001000000AC5A0100EF
:0411F80001000000F2
:0411FC0000000E00E1
:0412000000000F00DB
:0412040032000000B4
:0412080001000000E1
:04120C00601A002044
:0412100000020000D8
:0412140000000000D6
:0412180001C90110F7
:04121C0000000000CE
:0412200000000000CA
:0412240008000000BE
:0412280000002200A0
:04122C0088170020FF
:0412300000000000BA
:0412340000000000B6
:0412380008000000AA
:04123C00A4190020D1
:0412400000000000AA
:0412440000000000A6
:04124800080000009A
:04124C00000000009E
:04125000000000009A
:041254000000000096
:041258000000000092
:04125C00010000008D
:0412600084180020CE
:041264000600000080
:041268000100000081
:04126C00A8160020A0
:04127000000000007A
:041274000000000076
:041278000002000070
:04127C00000000006E
:02128000290043
:02128200010069
:02128400250043
:02128600300036
:02128800310033
:02128A002D0035
:02128C0001005F
:01128E00015E
:0812900003000000285A0100D0
:0812980000000000000000004E
:0412A0000000010049
:0412A4000000030043
:0412A80013C401105A
:0412AC001F2E0100F0
:0412B000B812000070
:0412B400B81200006C
:0412B8000000000032
:0412BC00381B0020BB
:0412C0009B2F01005F
:0412C4002000000006
:0412C800A459010024
:0412CC0000580100C5
:0412D00029C101101F
:0412D400EB21010009
:0412D8004B2E010098
:0412DC00A1C7011095
:0412E000A3C701108F
:0412E4000000000006
:0412E800C9590100DF
:0412EC00385601006F
:0412F0005056010053
:0412F400205601007F
:0212F8000200F2
:0212FA000900E9
:0212FC000100EF
:0212FE000000EE
:0113000001EB
:04130400292F01008C
:041308007912010055
:04130C00E5230100D4
:04131000251601009D
:04131400231701009A
:041318007504010057
:04131C00E9D900000B
:04132000B5310100E2
:041324006DF7000061
:0413280015C70110D4
:04132C0025C70110C0
:2013300021B10969814201D10120704700207047F8B505460C4612F075F80646002705E004
:2013500021462846FFF7ECFF00B127462468002CF6D100F045FF3846F2BD00213822DFF877
:20137000400C4A43104490F83720130603D5491C0829F3D3002070472DE9F8438046894647
:20139000164600273821DFF8180C7943441804F13405B5F90000484508D1214600F059FA62
:2013B00020B1300008D0E878304205D17F1C082FE8D30020BDE8F2832046FBE710B501299E
:2013D000044698BF012112F023F82046BDE8104012F020B838B504460D4601F095FCA042FA
:2013F00031BF241A641E241A641CA40805F57A70A04238BFB4F1405F05D2641B012C98BFE8
:201410000124204632BD002032BD70B50446DFF8B00B40690025E8B1C268117B012501F0FE
:201430000F01022915D10069DFF8983BC168408A93F862604118192000FB06119068FFF796
:20145000C9FFDFF8541C20600A68B0FBF2F2226001E000202060284670BDDFF8D81B0A6812
:201470000020D30705D5DFF8340C0068C00900F001007047F8B500F0DAFA0546002C1CBFD5
:20149000A07A00282AD094F909600127FFF7E5FF07FA06F658B194F90900DFF89C1B4A682C
:2014B000113007FA00F0C04302404A6008600020A072207220606060C4E90400DFF8E01B0C
:2014D000A06194F909000A788740174388780F7008B1401E8870F0B200F0ACFA2FE10328C1
:2014F00004DADFF8E01A01EB40107047002070472DE9F0470027DFF8AC8BDFF8C8AADFF8C1
:20151000385B11264FF00109F8B2FFF7E8FF040034D0A07A012831D194F90900113009FAFA
:2015300000F0C143296069680843686094F9090009FA00F0C0B200F06EFA002104F11000C1
:2015500001F0B0FA81280AD1A2691AB10021104601F0A8FA812802D10220A0720EE0812835
:201570000CD09AF8610094F9091006FA01F108438AF861000021404611F06EFF7F1C032FE4
:20159000C2D3BDE8F0872DE9FE4F0446884691461F4611F047FF019700976FF0010B029060
:2015B0000025DFF8FC7A012697F800A0AE401AEA060F0DD0009810F1010F1CBF0199A94266
:2015D00006D1E8B2FFF78BFF10B1817A002947D06D1C032DE7D33DE0022818D140F20360D6
:2015F000208294F90900618A401D60F30B2161825079618A60F3C70161829079618A60F300
:201610004E316182D079618A60F30C31618200220D9878B10278417894F90900520142EA79
:201630008102401D42EA00224FF6FC710A40DFF8AC0B0243A2615FEA0900DFF8841918BFFD
:20165000C4F80490486B08B922684A6300F05DFA94F909B0029812F02BFB5846BDE8FE8F60
:201670000C9A2AEA06063E700123837245722146BB785B1C0446BB70216084F808800FF606
:20169000FD006060207A0128A6D10A20208294F90900401DA07490686061B8E738B50428FF
:2016B0001BD1DFF81C4904F1E405284611F07EFC98B1284611F0AAFEDFF8DC190A685043FA
:2016D000B0F5967F09D2284611F0A6FE052010F0C9F80120607300F042FA002032BDF8B590
:2016F00000F0A5F9DFF8DC7807F190060546307B20EA040434730024B86E20B19C3011F0FC
:2017100055FC00B10124F86E20B19C3011F04EFC044314D1307B002808BF002C0FD13068DA
:2017300068B190F820108A0709D5C46901F064FA306800220221A04700203060F1BD28464D
:20175000BDE8F24012F0B4BAF8B500290CBF01230023002A0CBF4FF0010C4FF0000C002995
:201770001CBF0D6B002D4FF0000E6FF05046DFF8547819D0C46ABCB109690369994206D0E1
:20179000BB6E99420CBFD7F870E0D7F874E0A408A4EB9504A4EB0E01B14226DA01F1805100
:2017B000B1F1805F21D90123002A1CBFD46A002C18D0016BB1B1126900690025904204D0A6
:2017D000B86E82420CBF3D6F7D6FC5EB9405A5EB9105B54209DA05F18055B5F1805F04D936
:2017F0004FF0010C03EA0C00F2BD0020F2BD91F8361090F8360081428041C00F70472DE969
:20181000F843DFF8BC6775698946716A8046FFF787FD0024012738B1716A4846FFF7E7FF41
:201830000027002800D0746A75B100F011F848B129464846FFF7DBFF002708B9002401E0C9
:2018500004B92C462D68EFE707B14C4601F0A5BD2946404664E5002280B5012908BF012298
:20187000012100910123B0F93410006901F097F802BD2DE9F843DFF848777C6988461646F6
:20189000994607F11401FFF753FD002568B97A69AAB1796A3046FFF757FF80B10125002462
:2018B000C9F800402846BDE8F2830446226821463046FFF749FF08B10225F1E72468002C30
:2018D000F4D131464046FFF79AFF040003D0B442E6D00425E4E7F068017BBC6901F08F01B6
:2018F0000229DDD14CB9786A0028D9D0796A00223046FFF729FF0028D2D16FF00200D2E7C9
:201910007CB51546002200920024DFF8B46609B36B462A46FFF7ADFF0446012C05D1294627
:2019300006F1140010F0ACFD19E0022C09D100980268002A294606F114000ED010F07EFDE3
:201950000DE0042C05D195F836100098FFF783FF00E024B9294606F1140010F080FD204687
:2019700076BD38B5DFF8D04ADFF854566069002161610022E068E16005F178000FF2496155
:2019900011F056FD00200BF004FDDFF8B00A01680A6B9047A96B814231BF401A401E401AA8
:2019B000401CA9684FF0FF32A2EB10328A4234BF4FF0FF3001EB1030A860287B20B1296C01
:2019D000A868C90281421FD2FFF747FDC0B1DFF8700A40F609010180002200214180417BEB
:2019F00001F0F00141F001014173017B01F0F00101734260E2612060418811F4406FFBD08F
:201A1000012028730020A8600FF0FEF8DFF8341A0020086031BD10B500F009F8DFF8A01500
:201A30000A7C14430C74BDE8104012F041B9044611F0F8BC38B5FFF7FAFF0546DFF88005C6
:201A5000017C21EA04040474017C0A0703D40821443011F001FD2846BDE8324012F028B905
:201A7000DFF85C150A7C104070472DE9FE4F05460020286000266846FFF7C7FC0446DFF87D
:201A90001806DFF840B5DFF8388501904FF0FF3A00274FF01909F8B2FFF721FD00281CBF66
:201AB000817A002916D0017A0126022921D0D8F83420D168528A406951189BF8622009FBEA
:201AD0000211FFF787FC01990A68B0FBF2F0504598BF82467F1C032FDDD330460CE02960B5
:201AF00002E008B1C5F800A0204318BF0120BDE8FE8F01204FF0000A002CF2D00028009938
:201B1000EDD05145EBD95146E9E77CB5DFF8B0442078022803D1192011F088FC73BD01288E
:201B300018BF04281AD011F07DFC05466846FFF79CFF04F1E40660B1009820B1014630468E
:201B5000FFF73CFC08E0304611F066FC00F007F802E0304611F060FC01F04EF873BD042156
:201B700004F1440011F078BCDFF854345A6A996A5869002A00D1704710B581B978B190F89E
:201B90003710CC060BD511690069814207D1BDE810404FF4004103F1440011F05DBC10BD26
:201BB00010B5014600228B68487C5A8040F602041A88121B09D041F21E04121B05D041F6E4
:201BD000E674121B012A11D920E01C8A4FF6FF3214401C8220B14FF60F4004401C8215E00F
:201BF0002D20224660F309121A820FE01C8B4FF6FF3214401C8320B14FF60F4004401C83CF
:201C100004E02D20224660F309121A830020487410BD38B5DFF8A8536C699CB1A86A00284C
:201C300065D12169686A38B16A6A106988425ED194F83700C2065AD5686B814206D04FF46A
:201C5000806100E0022100F06AFD31BD6846FFF7DCFB00281CBF0098002809D0696A002938
:201C700004BFA86A002803D10820FFF7E3FE31BD0820FFF7D0FE94F83700C10605F1140016
:201C900003D510F0CAFBA86202E010F0C6FB6862D4E90601C143DFF8A0239160936803428D
:201CB000FBD1D368D4E906010343D360D4E90601C94311605368D4E906010B435360E468C3
:201CD000204610F09BF9208840F60201401A08D041F21E01401A04D041F6E671401A012856
:201CF00003D82146012000F038F9FFF73DFF31BDB348416B8A6801F12803506830B1984207
:201D100018BF0246F9D101E000207047507B10F00F0F02BF488D40F609018842F4D10120A3
:201D30007047F8B5A64EDFF82C0B746A11F06EF90546DFF8240B0268076802F020022A403F
:201D500018BF002C07F460270BD0F462D4E908011143C4E908014FF4005106F1440011F01D
:201D70007BFB3D400DD0974890F8611041EA554580F8615006F19400BDE8F440002111F037
:201D90006BBBF1BD2DE9F843DFF8388298F86100002450B10026012098F8611000FA06F22D
:201DB00011420DD1761C032EF6D398F8610028B1BDE8F4430021BB4811F04EBBBDE8F18369
:201DD00098F861101020B040014218BF012411F029FB98F861101122B240914388F8611083
:201DF00011F066FFF0B2FFF77AFB02001CBF907A0028DAD092F90990DFF8A41C01EB890176
:201E1000002C0F681668556804BF137A022B03D1D2E90401C3000CD41046FFF72BFB44B1B9
:201E30000020009000224FF0007349463046A847BBE7009700224FF00063F6E72DE9FC41ED
:201E50000FF23C11DFF87881DFF80C5AD1E90023CDE90023002400265DF826703868A0B339
:201E70003A68D2E9060110F039FE84463868816A4CEA010181621CF00A0F3968D1E908239C
:201E900042EA0C00C1E9080317D03A68AB68D2E9060120F002008343AB6044F002043A6828
:201EB0002B68D2E906018B432B6008F11C00396810F0D5FA0020386007E0BCF1000F04D0B0
:201ED0003868C8F82C0044F48044761C012EC3D921001CBF08F1440011F0BEFAFFF708FB22
:201EF000FFF797FEBDE8F381DFF80C0CB0F93010B0F93200814204BF0820FFF79BBD7047C8
:201F10000720FFF7ECBBF8B506460F46D6F868C014461D46BCF1000F18BFE047D6E918015A
:201F300004400D400020854208BF844214D001F06BF8C6E91C4538B1D0E90823A243AB43A4
:201F5000C0E90823B16E81600020B06606F14000BDE8F24011F078BAF1BD10B50A46DFF88C
:201F70009C1B4B681C001CBF8968014205D0144C0146606BBDE81040184710BD704700009D
:201F9000442200204822002080B511F063FADFF8682B0146506B5268BDE808401047000024
:201FB000181E0020DFF8500B0FF2A1424168914208BFFFF7AABD0421443011F04DBA000064
:201FD00020220020D024002038B54FF0FF3010F085FDDFF8245B0FF27541044668688842AD
:201FF0000AD100F095FB02202870FFF781FE18B9FFF77EFAFFF70DFEDFF8F40B044207D014
:2020100005F14400BDE834404FF0005111F024BA31BD80B54FF0FF3010F060FD810707D59C
:20203000BDE804404FF48051DFF8D40C11F014BA01BD000040210840081004401CB5DFF8A2
:20205000B84A616B4A68516839B1012808BF0FF023FE606B416848688047606B42689068E5
:20207000002804BFD168002914D0DFF8881B08680028FAD000230B60906800B18047606B7A
:202090004168C86800B18047BDE81640DFF8D00C0FF0B4BF13BD00008427002000000440E0
:2020B00030250020B422002070B5DFF84C5AEC69002C77D0E168202040F6040240F603033A
:2020D00000291CBFC6B2002E72D00E889E421EBF96424968401EF3D165E000224FF080439D
:2020F00004E000224FF0805300E0002394F83700010706D594F8370010F0070F18BF43F02C
:202110008073B4F934102069A668B04711F08AF90646688E401CC0F30B006886002084F8D3
:20213000370005F11C0010F078F900F059F8B5F93200B5F93010884234D1226992F8C01012
:20215000052001B10720FFF7CAFADFF8B80B2369826E934208BFC26E93F8C000002100B9B0
:202170001968002583F8C0504AB192F8C00010B182F8C05003E01068884228BF014619B969
:20219000BDE87040082055E411F1010F0AD0AE480268B1FBF2F12269BDE8704002F1780053
:2021B000FFF70CB970BD2069182228300AF0ACFDA26A0020A062A0680028A7D094F83710C1
:2021D00001F00701012904D0022986D0042988D08BE700224FF0005388E700000100040652
:2021F000304611F065BD38B50D46A807DFF808490ED5FFF759FFE06938B145F0020104F18F
:202210004400BDE8344011F027B9BDE831407CE4680753D5DFF8D80B01680A6B9047A063F1
:20223000606988B10569606B002818BFA8420AD095F82000410704D5EB69002204212846B9
:202250009847012068746563606B4168DFF8A40B0A78026002200FF005FB112009F092FE11
:2022700001202070DFF89418887810B90E2009F089FE606B704A40688168002904BFC06879
:20229000002804D00021D161DFF86C0B106007206C49086000205169506100219069916146
:2022B00050690FF21D0140F0804040F00200506161601920BDE8324011F0B6B831BD0000F5
:2022D000890000D470472DE9F843804684B00020FFF7B4FE584DDFF8240B594F0021E96109
:2022F000286040F60A0601200BF053F83E80002078800021387B00F0F00038737960787B98
:2023100000F094FA78734046FFF74AFCD8F808904C4640F6040140F60302606800281CBF47
:202330000388B34218BF93424ED08B4218BF0446F3D149E0B8F82800B8B10021A8F82A102C
:20235000C8F82C1008F134004278017802F0F00201F0F00142F001020170427008F12800D2
:202370007860787B00F0F00078736946484610F0B9F8684610F052FE00F05DFA0FF2CD00B6
:202390007060707B30B10EF049FA0028FBD011F057F80EE0DFF8B41B0A681368012098478C
:2023B000012806D0607B00F041FA60730FF2410070600020E861C5F8009049460120FFF7C7
:2023D000CCFD05B0BDE8F0836760607BDFF8286700F0F000607370690028ABD0C068008870
:2023F000904218BF8842A5D10021B163BDE70000DFF8102C114200D17047DFF8501B0120BA
:2024100010B50A68DFF8F04613689847012808D10FF23900606000210748C16108490160CE
:2024300010BD09490A683220B0FBF2F104F1E400BDE81040FEF7C2BF001004408C010010E6
:20245000EC26002000000460842700202DE9FC470C466104DFF8A0561ED510F0E3FFEF6A00
:20247000AFB1B96A8A0712D4BE6AB96AB143B96211F01EFCB868002818BF002E09D0B7F907
:20249000341038693246BE680023B04701E011F00FFC24F4804435E10646A0006FF480776A
:2024B000DFF84C894DD510F0BDFFD8F854100A6882460420904700281CBF307C002822D050
:2024D000A86B00B38146D8F80000016B88478145F16831BFA0EB0909401EA0EB090000F1C5
:2024F00001094FEA19308842F06002D201444908F16040F69901F068A0F59670884224BFFB
:2025100040F6C411F160504611F0D2FBFFF7F0FB68B13946B76900224FF000733046B84709
:20253000686910B1FFF7F1FA01E044F002043046766900224FF080630021B04724F00054E4
:20255000E0E0A00707D5FFF7AFFDE869002801D124F00204D6E0600525D510F063FF6E69D3
:202570000746D6B1696A002904BFA86A002814D104212970686B0FF2B111696010B1783013
:2025900010F04AFF30696863D8F80000016B8847E8634FF4006100F0C2F8384611F088FBD8
:2025B00024F48064AEE0A0040FD5EE6A002E1CBFB068002806D0B6F934103069B6680022B6
:2025D0002023B04724F400549CE0E0042BD5FFF78FFB30B13046B66900224FF0007339469C
:2025F000B04700F095F802202870D8F80000EE6B016B8847DFF80C276B6B976E0421BB4232
:2026100008BF002146B1864231BF861B401E861B761C5018360B06670020E86324F4805474
:20263000FFF773FA6EE020040ED5696A39B1CA6850880028FBD0CA6850880128F7D0FFF728
:2026500064FA24F400445DE020075BD5287C010754D4287C010651D46846FFF706FA10B113
:20267000009800284AD000260127F0B2FEF737FF00281CBF817A002907D0877290F90900CC
:2026900007FA00F0C0B2FFF7D5F9761C022EECD903202870686B783010F0BEFEFFF761F93A
:2026B00000210220FFF759FC02200EF0AFFE112009F0AEFB687C20B9696B01F1400010F019
:2026D000C3FEDFF83824907810B90E2009F0A0FB687B20B10021697305200EF097FEDFF823
:2026F000C00C6860002028700220B5F93210B5F93020914208BF0720FEF7F1FFFFF705FAD3
:2027100024F0080414B1214600F009F8BDE8F3870022DFF8901C05F1780010F089BE05F1FD
:20273000440010F099BE0000F8B50446080584B06AD5DFF8C463706B90F820104A0703D5BD
:20275000C3690022042198470022DFF8E01ADFF8E05A06F1780010F06BFEDFF84C0C70603C
:20277000706B40688168002904BFC068002804D00021E961DFF8800628600120FFF75EFC0C
:202790000020E861DFF874062860012060742046FFF706FAA768394640F6040240F6030390
:2027B00040F60A0C486888B3B0F800E0E6451CBF9E4596452AD00146F4E7208DA8B1002242
:2027D0006285E26204F134004378027803F0F00302F0F00243F001030270437004F128001D
:2027F0004860487B00F0F0004873694638460FF079FE684610F012FC00F01DF8E9612F6086
:2028100039460120FFF7A9FB05B0F0BD00204860487B00F00BF848737069C0680088984270
:2028300018BF9042C9D10020F063DEE700F0F00040F001007047E8690028FCD00021E96195
:202850007047AD49486A002808BFFFF75EB9FFF78BB9000020000E000C10044038B584B024
:2028700007F03AFADFF81C0CA44D0168A24C41F002010160684610F0E9FB6878DFF8081CD4
:2028900002906A4604F144000EF0DCF96A46DFF8FC1B04F194000EF0D5F9684610F09EFBA0
:2028B0002878DFF8EC2B01906B46192104F178000EF0F4F86B46DFF8DC2B1A2104F1C80020
:2028D0000EF0ECF800230022DFF85C1C04F1E4000DF0ACFA0023DFF8542C042104F584706A
:2028F0000FF0A0FBA878012804BF0E2009F04AFB04F11C0010F0ACFA04F1140010F0A8FA54
:2029100000202070A081A0600721DFF8240C01700021A163052121640021217405B04FF4B8
:20293000FA7101614161DFF8780A606030BD2DE9F84FDFF8747C7D698046894692469B46BA
:20295000002600E02D684DB34D45FBD135B32C68FEF77EFFE8B195F8370040F00400BBF143
:20297000000F85F8370009D095F8370040F0080085F83700D9F8101000F089F8294607F132
:2029900014000FF03DFC294607F11C000FF067FD761CBAF1000F18BF2546D7D124E22DE9A3
:2029B000FC4780460C4617469946032510F03AFD14F1010F8246504E0DD1716AFEF749FFA0
:2029D00008B1746A0DE0B16AFEF743FF00280CBF7469B46A05E0002221464046FEF7CCFC72
:2029F0000446002C4DD094F83700010648D50A9D706A84421CBFB06A84422ED10121706A50
:202A1000B94028B1706A90F837200A4380F83720B06A28B1B06A90F83720114380F8371000
:202A3000002F14BFDFF8840BDFF8840B0FF0E6FA280008D094F8370040F0080084F837002B
:202A5000216900F024F8B9F1000F17D071692B464A464046FFF76BFF10E02B464A46214617
:202A70004046FFF764FF58B13078012818BF042804D0022106F1440010F0EEFC832500E0E6
:202A90000425504611F014F92846BDE8F687DFF8240B0160017B41F0010101737047000088
:202AB0009430044010B50C4600F054F90BD10FF0A5FA04B1206000F0FF00012801D1812070
:202AD00010BD022010BD012010BDF8B504460D46164610F0A7FC07460748416B8C4218BF06
:202AF000032404D131462846FFF7DCFF0446384611F0DEF82046F2BD20220020F8590100AC
:202B1000F8B50746DFF8B00A8AB00E001546006818BF002D1C4668D03278D040C00764D5B7
:202B3000002128460BF06EFB7E60BD6010F07AFCDFF8746A0546707C022854DA08B9FFF726
:202B50008DFE707C6F4901EB8001401C8F66707400F052F834B903A80FF698211C220AF0CC
:202B7000D3F803AC20683860A0693862208A7882012078746068002812BF002140F6C4106B
:202B900001213974F860DFF8341AE0680A460B4600B10146B961606900B10246FA61A068B9
:202BB00000B103467B61A02107F128000BF0B1FA002107F140000FF09BF8684610F0B9FB5B
:202BD00002976B460022DFF8F81907F178000DF02DF96B460022DFF8EC1907F19C000DF0BE
:202BF00025F9384602E000F007F800200BB0F0BD020000401C100440284611F059B870B579
:202C1000DFF8A449617C002978D00546B4F93000B4F9321088421AD004F114012846FEF75A
:202C300087FB58B9616A2846FEF77AFB002811BF606A04F11C012846FEF77AFB38B1B0F910
:202C5000341000224FF0E043284600F081F910F0E9FB06462B48816E8D4207BF0021816695
:202C70000021C166607C401E6074C0B288BB2078656302280DD10820FEF7DCFEFFF7B0FA3A
:202C90004FF0FF3105F1400010F06DF910F0CAFB064604F1440010F0D9FB04F1780010F08E
:202CB000BFFB04F1940010F0D1FB04F1C80010F0B7FB04F1E40010F0A5FB04F584700FF021
:202CD00061FCDFF804098178012904BF0E2009F09FF8606BA84204BF00206063FFF780FA34
:202CF00005F1400010F0AEFB05F1780010F08AFB05F19C00BDE8704010F084BB70BD00009F
:202D100064220020D0240020F8B510F08BFB00F021F805D1DFF8B4381C6810F0C9FF17E0D1
:202D300010F0C6FF3248DFF8A84801680A6B904710F50032DFF89C0841F100030169A4FBD8
:202D5000026704FB03770020341847EB01052C462046F2BDDFF850180A78022A70470000B2
:202D7000010007062DE9F84F80468B461546994610F058FB8246FEF7F0FA04006FF00106A3
:202D90002FD0DDE90A6708F1780010F045FBDFF81808018E491CC1F30B010186C4F80CB092
:202DB00004F1360120230D70C4F808903B40028EA286C4F810801430DFF81C28324042F041
:202DD0000205C4E9065380220025C4E908554A7088F8C05021460FF042FBFFF732FDB4F946
:202DF0003460504610F064FF3046BDE8F28F00008C010010D02108405100070601010E0452
:202E100000210171016070472DE9FE4F81468A4617469B4610F006FB02906FF00108DFF8ED
:202E3000BC07816E894508BFC16E009100F19005009830B19C3010F0B9F810B16FF00208D5
:202E50005DE0FEF78AFA04006BD0019709F1780010F0E2FADFF85077388E401CC0F30B0009
:202E70003886C4F80CA004F13606019801793170C4F808B02021388EA086C4F81090DDE974
:202E90000C23DFF8540710401940C4E9060100227270C4E908222263E262019A126802B1F8
:202EB00022639AF80C2002F00F02022A04BFDAF80820E2622023DAF80420C2B3BBB392469B
:202ED0005B1EF8E740F00200C4E906012868484505D1287BC10744BF00F0FE002873009921
:202EF00022464846FEF70CFD10F1020F18BF10F1030F0BD1388E411EC1F30B013986287BAF
:202F100040F004002873C5F800900AE0B4F93480707840F080007070002189F8C010FFF75A
:202F300090FC029810F0C4FE4046BDE8FE8FBAF8002002F47C42B2F5305FC3D1727842F075
:202F50001002727040F00800BEE70000E00100102DE9F0410F46390014461D4601D5002017
:202F70001BE0064610F074FA804600F04DF8070003D097F83700010602D400F04AF80BE0F7
:202F900097F8370010F00F0F09D000F042F897F8370010F00F0FFAD1022000212FE0D7E979
:202FB000080144F00A04204029400022914208BF904210D000F02DF8D7E9080120402940D8
:202FD000C6E91C01D7E9082322EA000023EA0101C7E9080111E0B968DFF80406814202D0CE
:202FF000B968B166B860C6E9184500F012F84FF0FF3106F140000FF0B6FFD6E91C01BDE890
:20301000F081000004000020802239463046FEF7B3B9404610F048BEDCB500F011F8FFF707
:20303000A1FE04E0DCB500F00BF8FFF7EDFE0146204602B0BDE8D04000224FF0E04387E792
:20305000DDE90667CDE900670446704770B5FEF7EEFC0546DFF850654FF0FF30B06004F1C1
:203070009C0010F0D9F900F025F810D1307802281EBFDFF8681591F89C00002807D0FFF7C7
:20309000BBFD0720FEF72BFB10F0CCF9054600F011F807D104F1780010F0BEF90820FEF704
:2030B000C9FC02E0012084F8C0002846BDE8704010F0FEBDB6F93200B6F93010884270472D
:2030D00080B5930803F001030093530803F0010302F0010207E080B5930803F001030093FE
:2030F00002F001020123FFF75AFC02BD0FF204511C2209F009BE00E000BF0022E5E480B589
:203110006A46DFF8E014FFF7E0FC812803D100980002001602BD6FF07F0002BD2DE9F0477C
:203130008A46154610F07EF9DFF8B064DFF87844BAF1030F4FF08309804606F160076DD86E
:20315000DFE80AF0020A0D14606A10B1616A888E03E04FF0800963E03878288060E02078E7
:2031700002280CBF01200020287059E02D68C82128460AF0CEFF2A464FF0000C142302F1A0
:20319000100A07F1080503FB0CF1501855F82C5045600C2505FB0CFEB6440CF1010C9EF85A
:2031B00080500AF80150BCF1010FDEF87C108160DEF878502944C160E3DD606AA8B1666AFD
:2031D000376903FB0CF1501802F110054760666A96F836706F54616ACE6A8660616A0E6B39
:2031F000C6600CF101004FFA80FC6069C0B1BCF10A0F15DA03FB0CF156180769776002F144
:20321000100490F836706754C16AB160016BF1600CF1010100684FFA81FCE7E74FF0030962
:20323000404610F045FD4846BDE8F087232000000010044080B58022FEF79EF800B1C0683A
:2032500002BD10B504460C2102E010B5044608210AF05FFF4FF0FF30207110BD0021017093
:2032700041707047E0B500F009F8012103E0E0B500F004F80221FEF786F90EBD0192009144
:2032900091F904300A687047F8B505460C4610F0C9F80746E0B2FEF722F9802604001CBFB8
:2032B000A07A00281AD0FFF755FD11D194F90910491D0906090C41F08161002241F0010110
:2032D0002846FFF702FC06462046FEF7D3F805E02046FEF7CFF8FEF718FC8126384610F0D5
:2032F000E7FC3046F2BD00002DE9F843054689461646832410F096F8B9F1070F8046AA4F3B
:2033100047D8DFE809F004070D10131F2E41306828603FE001206874E8686030E86039E078
:203330003168698236E03068386433E0306818B98020FEF770FB2DE001282AD18020FEF76D
:2033500079FB27E03978002904BF786900280ED13168192010F06EF831681A2010F06AF8F0
:2033700018E03978002904BF7869002801D0002410E0316807F1440010F070F8316807F1EC
:20339000940010F06BF805E03078944981F8600000E00324404610F08BFC2046BDE8F2834F
:2033B000F72100004D1E00005D2400002DE9F84F0F4690B0054638684FEA90088A488045B4
:2033D00002D2387A022801D0032058E010F02AF881460026DFF804A20AF16C000090016815
:2033F0008D4208BF012686F001010AEB8100846E25B105F19C000FF0D9FDA0BB24B104F1BE
:203410009C000FF0D3FD70BB387A8DF83E000DF1080B3CB1387A8DF83E0002A92046FEF718
:20343000EEF98346BBF1000F1DD00C2046430AEB0600396840F8781F397A01726B480168C2
:20345000B8FBF1F105F19C00FDF7B8FF484610F02FFC02A8834504D09DF83E105846FEF715
:20347000FAF983200BE09AF89C0040F002008AF89C0000984562484610F01AFC002011B079
:20349000BDE8F08F00200940991F0000951D0000D91F0000331D000038B503248368CA0F05
:2034B00013D10FF26C121C8840F60205AC4216BFB4F5C15F5982598313680093ADF80210B0
:2034D00000226946FFF701FB8324204632BD01460FF24010896800680A8840F602039A4283
:2034F00016BFB2F5C15F498A498B800D41EA80507047F8B502460023C1F315043C4D03EBDE
:20351000830690577F281FBF9619D6F80160C6F31507AF4206D0F60FB6EBD17F0CBFA74282
:203530005B1CECD1F2BD0000B51F0000AD16000030250020F0B50FF2E00213684AB212F18A
:20355000800F09D100210092421C525C0DF80120491C0429F8D320E00022254D02EB8206A7
:2035700087577F2F1FBF00F1010C5CF806C0CCF3150CAC4513D04FFA81FCBC45A8BF521C69
:20359000ECDA0CE0009400213044421812F8042C0DF80120491C0429F7D30098E2BD002AC9
:2035B000F0D11846E2BD000020220020010002040100010460250020D42108408D1F000040
:2035D000F91E0000111F0000F85901000430044000093D00EC260020FFEFFF9FD0240020B2
:2035F000171F00000100030441420F0084270020FFFF3F00FFFFFFFF0000000000000000E7
:20361000000000003A010000000000000000000010000000FFFF3F00FFFF3F002DE9F84F78
:20363000DFF82885DFF82815DFF8286588F80000002008600821DFF8200501700D214180F1
:2036500040F221318180DFF814050660B77EDFF810050770FF2FF17E417008BFFF29327FF9
:203670008270737FC370B57F0571F67F467115D1FF2A08BFFF2B11D1FF2D08BFFF2E0DD16D
:20369000DFF8E0140A7802704A7842708A788270CA78C2700A79027149794171DFF8C81462
:2036B00002780A70FF2542784A7082788A70C278CA7002790A714079DFF8B0244871DFF81C
:2036D000B014DFF8B004057045708570C5700571457100200880DFF8A0144E6BDFF89C1498
:2036F0007078087031781170B078DFF894140870B1680879DFF88C14421E0A70F078DFF8E7
:2037100088140870F068DFF88414086008B90FF039F93069DFF87844206008B90FF032F9CD
:203730002068DFF8707401688847216851F8042F38469047DFF86004DFF860143862DFF8AD
:20375000600478627069086008B90FF01BF9B069DFF85014086008B90FF014F9F069DFF84D
:203770004814086008B90FF00DF9DFF840B4DFF840649BF804000FF091FC306008B900F005
:2037900048B99BF80500DFF82C740FF087FC386008B930683AE19BF80600DFF81C440FF0AC
:2037B0007DFC206020B930680FF088FC38682DE19BF80700DFF804940FF070FCC9F8000029
:2037D00038B930680FF07AFC38680FF077FC20681CE1DFF898130A789BF80000DFF8E0A353
:2037F000921C504380B20FF059FCCAF8080058B930680FF063FC38680FF060FC20680FF09F
:203810005DFCD9F8000001E1D8480078002800F00581BBF80210DFF8ACB3484380B20FF09F
:203830003DFCCBF8040078B930680FF047FC38680FF044FC20680FF041FCD9F800000FF0FA
:203850003DFCDAF80800E1E0C84800780FF026FCDD49086098B930680FF030FC38680FF09A
:203870002DFC20680FF02AFCD9F800000FF026FCDAF808000FF022FCDBF80400C6E0BB48F9
:203890000078182148430FF009FCD04A1060B0B930680FF013FC38680FF010FC20680FF00D
:2038B0000DFCD9F800000FF009FCDAF808000FF005FCDBF804000FF001FCC348A5E0AB48EA
:2038D000007840010FF0EAFBC1490860D8B930680FF0F4FB38680FF0F1FB20680FF0EEFBB7
:2038F000D9F800000FF0EAFBDAF808000FF0E6FBDBF804000FF0E2FBB34800680FF0DEFB5B
:20391000B249086882E09948007800010FF0C6FBB0490860F0B930680FF0D0FB38680FF0A5
:20393000CDFB20680FF0CAFBD9F800000FF0C6FBDAF808000FF0C2FBDBF804000FF0BEFBAD
:20395000A14800680FF0BAFBA04908680FF0B6FB9F485AE08548007800010FF09FFB9E4962
:20397000086018BB30680FF0A9FB38680FF0A6FB20680FF0A3FBD9F800000FF09FFBDAF820
:2039900008000FF09BFBDBF804000FF097FB8E4800680FF093FB8D4908680FF08FFB8C48A4
:2039B00000680FF08BFB8B4908682FE06F480078302148430FF072FB884A106070BB30683B
:2039D0000FF07CFB38680FF079FB20680FF076FBD9F800000FF072FBDAF808000FF06EFBD7
:2039F000DBF804000FF06AFB774800680FF066FB764908680FF062FB754800680FF05EFBED
:203A1000744908680FF05AFB734800680FF056FB00200EF0B7FF4FF4804191E0316801209F
:203A300008713068057331684D73306885733168CD7330680574002031684D743268D072C4
:203A5000A0223168487103213068C2800172072031684872002032689072282130684182F7
:203A70000121C176002031684877326882F85E0001203168087732684A4E82F85D00396810
:203A900008713868057339684D73386885733968CD7338680574002039684D743A68D0722C
:203AB000396848713A6890724FF4207039680022C88008818A7401213A68D17421680D7381
:203AD0002268557321688D732268D57321680D740021226855742368D972012122681171A7
:203AF0000021236859712168C8800881002088722168887405202268D0743948016888479B
:203B10003168054608688047326852F8041F0020884719481C4BC16818780A8831490243B2
:203B30000A80284630490A6890470C212F4810F0B7F8104810F0B0F810F0AAF84FF4005132
:203B500098F80000BDE8F44F08F0A4B86E4F0020044F0020B63F0050604E0020084F0020AF
:203B70002C4E0020E81200503C4E00207B4F00200C4F0020344E0020FC5A01006D4F00206D
:203B90006B4F0020724F00206C4F0020F04E0020F44E00207C4B0020AD300100F84E002094
:203BB000CD300100FC4E00203C2300202C1B0020104F0020144F0020184F00201C4F002093
:203BD0001C270020684E0020004F0020804E0020844E0020884E00208C4E0020904E00205F
:203BF000BC130020544F0020C0130020F84D00202DE9F04FD94C0146E0790FF244380FF213
:203C1000443B0A09ADF1140D80F0AA814909C0F0298294F90210D04D002840F09680287831
:203C3000B1F1FF3F5BD12179E069B1BBE178012900F01882012700260221E770DDA36670EE
:203C500032460EF088F9E0694346032132460EF082F9E0690421434632460EF07CF9E0694B
:203C70000521434632460EF076F9E0690621434632460EF070F928780DF0B6FF8DF80400ED
:203C900001AA8DF8067003208DF80760CD498DF80500102005F02CF8E4E104250221002243
:203CB000D9A3E5710EF057F9E0694346032100220EF051F9E0690022434629460EF04BF9CF
:203CD000E069052100225B460EF045F9E0690621002243460EF03FF902F028FCC2E1012239
:203CF00004EBC105E271A4356F780DF07DFF8DF8040000268DF805608DF80660AD1C8DF8A1
:203D10000770296802A80160AB888380D74901AA102004F0EDFFE0690221D7A332460EF013
:203D30001AF9E76928460CF021F903460321324638460EF010F9E069042132460FF039FA0A
:203D500066704FF0FF30A0708CE1DFF824A3DFF82493022828D0052826D0042840F08281C2
:203D700000250120E57157464E4602212071C5A33D702A463570E06925730EF0ECF8E0697C
:203D9000434603212A460EF0E6F8E069042143462A460EF0E0F8E06905215B462A460EF05F
:203DB000DAF843462A4659E1E07A6779667B00287FD0401E32D0401E40F054810026E6711C
:203DD0000DF0C0FCA07910B130460AF043FBE78928780DF009FFD949024613203B460090CF
:203DF000102004F085FFE06902213246AAA30EF0B2F8E0694346032132460EF0ACF8E069D9
:203E10000421324643460EF0A6F8E0690521324643460EF0A0F80120E07223E147B3022631
:203E3000E671002565710DF08DFCA07910B128460AF010FBE06931462A469BA30EF08BF85E
:203E5000E06903212A4643460EF085F8E06904212A4643460EF07FF8E06905212A465B4615
:203E70000EF079F825734F463D7050460570F9E00526E671012565710DF012FAA07901283C
:203E900002D028460AF0E6FAE069022100225EA30EF061F8E0694346032100220EF05BF8A9
:203EB000E0690421002243460EF055F831465B46A8E00EB30226E6710025657365710DF0DE
:203ED00041FCE069434601212A460EF044F8E069434631462A460EF03EF8E0690321434614
:203EF0002A460EF038F8E069042174A32A460EF032F805212A4620E00526E67101256573E1
:203F100065710DF0CDF9E0694346002229460EF022F8E0690221002243460EF01CF8E0690B
:203F30000321002243460EF016F8E069042100226CA30EF010F80022314665A38FE0C046DB
:203F500000C046C0546F67676C6520416F41205363616E202D3E00C0D00B0020F004002019
:203F700000286EA659D1E07801287BD094F902006278401C41B2E0698A4225DC4FF0FF31C2
:203F9000A1704346002202210DF0E5FFE0690321002243460DF0DFFF2079002807BF5B4636
:203FB000012555A30025E069052100220DF0D3FF257151E0446973636F766572696E672EDC
:203FD0002E2E00C0CDD40000A170491C00224DA3009102210DF0BFFF94F90200E56904EB51
:203FF000C000A6300BF0C2FF03460321002228460DF0B1FFE0690521002245A30DF0ABFF95
:204010000621334600222AE0416F41205363616E205374617274656400C0022818BF052849
:2040300020D1E07A022814BF401C0020E072E069092110220FF0BDF8E07A38B1401E03D08D
:20405000401E09D139A302E05B4600E020A3E069052100220DF07FFF002233460621E069FF
:204070000DF079FF05B0BDE8F08FC046C1A800001E1B00202A1B0020436F6E6E6563746982
:204090006E6700C0416F41205363616E2053746F7070656400C046C0446973636F6E6E65ED
:2040B0006374696E6700C046416F41205363616E2043616E63656C6C656400C04175746F4B
:2040D00020416F412044697361626C656400C046546F67676C65204175746F20416F412035
:2040F0002D3E00C04175746F20416F4120456E61626C656400C046C0446973636F7665720B
:20411000202D3E0044657669636520256400C046436F6E6E656374202D3E00C03C2D204E19
:20413000657874204F7074696F6E00C0446973636F6E6E656374202D3E00C046E514011020
:204150002DE9F04F85B011F801ABDFF83035DFF830B58046AAF10200132808F1FD0208F189
:20417000660608F1F40708F59C7408F1860908F5AC7500F27082DFE810F0C8006E02140025
:204190004000430056026E0290006E0270009C0073007800CE008601CB01BF005E02D201BA
:2041B000D20108F1A004082220460FF06DFD0646082120460FF064FD08F198070422314616
:2041D00038460FF061FD042138460FF059FD00204142414408EB000291F89F1082F8BF105E
:2041F000401C0828F4DB08F1C702214608F1D70005B0BDE8F04F0FF03FBD0120B87139E262
:204210003978787A012900F010000DD130B100206070396CA07849080AF0AAFE98F80600CC
:2042300000210FF025FD0FE040B13A6CDFF8540408F59D73520841460FF058F898F80600A4
:20425000012200210FF010FD0120307040460FF007FD0120B071B8700CE20120F87009E2E8
:20427000087878700120F87104E2B07918B93D2038770120F876787A000701D40E212DE1B6
:2042900000205C1C0E5C245C34401454401C0828F7DB40460FF0E0FCE2E100205C1C0D5C2D
:2042B000245C2C401454401C0828F7DB02203872E0E1B07920B93D2101203977F876D9E156
:2042D000787C012803D10C2179770721D5E011F8010B3875022208F585700FF0D5FC0146F4
:2042F000022208F586700FF0CFFC01207874F87C0028E4D10C21C0E0787AC10601D41221E1
:20431000ECE040460FF0A4FCAAE108783877F0210020F876F6E07B7A980704D413F0110FDE
:204330001CD01A22E0E0307C012804BF727C0F2A08D0707D08B1727C12B1327F012A03D1E7
:2043500058070BD52322CFE010B1707C012803D099F80A20012A06D1580702D40F20787761
:204370007BE12A22C0E008784A7800EB02202081CA78887800EB022060814A79087900EB96
:204390000220A081CA79887900EB0220E081087A20748A7A487A00EB022060820A7BC87A86
:2043B00000EB0220A0828A7B487B00EB0220E0820A7CC87B00EB022020838A7C487C00EB59
:2043D000022060830A7DC87C00EB0220A083487D897D00EB0120E08308F5A6700490608A02
:2043F0000390207C0290B8F808000190E0890090A38962892189404609F0F2FF18B1787ABE
:20441000410770D469E06089A9F80400A089A9F80600E089A9F80800022089F80000002084
:20443000A9F80200B8F83400C01DF083B8F83210B9F80400884202BFB9F80600B8F83410B8
:20445000884202BFB9F80800B8F83610884213D0707D18B10F21B176FE210EE0FC214046A8
:204470000FF0F2FBE0890090A3896289218998F806000FF0E5FBFDE00021404605B0BDE833
:20449000F04F0FF0E1BB8A78C8780E798C7902EB0025487906EB0026C87901F10B0204EB4B
:2044B00000240492B3B2487A8A7A00EB022080B20390AAB2087A0290B8F808000190A0B22A
:2044D00000900878497800EB012081B2404609F087FF80B1787A410702D40F217977BCE0BA
:2044F00040460FF0A9FB1E22404605B0BDE8F04F0F210FF09DBBA9F80450A9F80660A9F800
:2045100008400021404605B0BDE8F04F0FF08CBB087828704878687001206071AAE0087811
:204530004A7800EB0220688208F5BC778878CA7800EB0220E8824A79087900EB02202882CE
:204550008879C97900EB0120A88208F5AC7108F5AC70CA8A8089904288BF1046AA8BA88373
:20457000904208F5AC704A8A008914BF01260026904288BF10462A8B2883904218BF012624
:20459000A98B387901220FF04BFB298B814205D3A98B387901220FF043FB0146798008F5ED
:2045B000AC7008F5AC724189108A6A8B814288BF014608466983904218BF01268A4208F537
:2045D000AC7108F5AC728041C989938AC00F994288BF1946EB8BE983994214BF012200223E
:2045F000164310B140460FF017FBBAF1140F10D146B1E88B00906B8BAA8B298B98F80600DC
:204610000FF006FB404605B0BDE8F04F152109F087BB1EB1387840F008003870397841F0B9
:204630002001397026E008780F2807D0122802D0142806D01EE0002020701BE00120207193
:2046500018E008F5BC71087840F00200087040F0100008700EE087F81DA040460FF0D4FAC9
:2046700040B99BF8000005B0BDE8F04F4FF4804107F010BB05B0BDE8F08F00BFEC4D00204E
:204690006E4F0020018B00102DE9F043C54C0178E279ADF1140D913900F0B6811F3900F06B
:2046B0005081203940F0B7810646E5696778B0780FF20C380FF21439002800F02981401E04
:2046D00000F00581001F0FF2EC2900F08C80401E5AD0401E00F01381801F40F09C81326932
:2046F000307B1118491E1018401E904240F2938112F8015B002D44D01078022803D003287A
:2047100018BF2A443DD16D1E521CEDB2022D35DB6810914232D91378B02B02D15378FF2BDB
:2047300006D0AD1E401E02F10202EDB2F1D125E096F80490082F06F1050880F26C8177B129
:2047500004F1A6063D464046314606220DF0E8FD002800F060816D1E06F10806F3D1424649
:20477000136804EBC700A430811C0B6092888A807F1C80F80190FEB266704CE1012D08BFAC
:20479000521C9142B4D846E10025E5714FF6FE70E0812572A582A5724FF0FF30A07002270A
:2047B000E7720CF0CFFFA07900B1A571E0699BA339462A460DF0CFFBB0790090E069032183
:2047D0004B462A460DF0C7FBE06904212A460EF0F0FCE06906212A460EF0EBFC2A460521E6
:2047F0004346E56990E0707800285ED113200EF023FE022507467089E5710123E081A08A5F
:20481000A37218B904F180000EF02CFEE0692946002286A30DF09FFBE569301D0BF0A6FB34
:2048300003460321002228460DF095FB0820FFF7DFF91FB9E56904217FA364E0D7491020E7
:2048500000223B4604F054FA38680090E0690A2100228AA30DF07FFBB8880090E0690B21B4
:2048700000228BA30DF077FBB8790090787A0190B7F807000290E0690C2100228AA30DF01B
:204890006AFBB87B0090787B0190387B0290F87A0390B87A0490E0690D2100228AA30DF089
:2048B0005AFB38460CF04AFDB5E000274FF6FE70E77102218BA33A46E081284627720DF0D5
:2048D0004AFB70784B46032100903A4689E70026E6702846022187A3324600970DF03BFBED
:2048F000607828B1E069032132464B460DF033FB4FF0FF30052143463746A070E5E7F07878
:20491000022181A30090002228460DF024FB82E07089E082F01C0BF029FB0346012100228F
:2049300028460DF018FBE069022100227BA30DF012FBE069032100224B460DF00CFB0022ED
:204950004DE70546022A18BF052A57D16978E06916294CD029790B2926D0012902D12A7A7C
:204970000A2A21D0132915D0012902D12A7A122A10D07E290BD07F2906D0207A00283DD055
:20499000284605F015FE39E0298967A331E0297A69A32EE001291CBF617A6BA31FD16EA3FF
:2049B0001CE0C046F0040020012916D0E96809786DA314E0526561736F6E3A20256400C0E0
:2049D000446973636F766572202D3E003C2D20546F2053656C65637400C067A3297B009132
:2049F000002204210DF0B7FA0020A07206E0297965A30091002204210DF0ADFA297905F1DC
:204A100008000FF0FDF806E04078102803D10820002104F051FE05B0BDE8F0834469736304
:204A30006F6E6E656374656400C046C0436F6E6E656374656400C0464552524F523A20468D
:204A500061696C656420746F20616C6C6F63617465206D656D6F727920666F722072657454
:204A700075726E20636F6E6E656374696F6E20696E666F726D6174696F6E00C0416363658F
:204A90007373416464726573733A203078257800436F6E6E656374696F6E20496E74657289
:204AB00076616C3A20256400486F7056616C3A2025642C206E787443683A2025642C206DA6
:204AD0005343413A202564004368616E4D61703A202225783A25783A25783A25783A2578FF
:204AF0002200C046436F6E6E656374204661696C656400C04465766963657320466F756E14
:204B10006420256400C046C0506172616D205570646174653A20256400C046C0496E697401
:204B300069616C697A6564004D54552053697A653A20256400C046C046432056696F6C6185
:204B50007465643A2025640057726974652073656E743A20256400C05772697465204572BB
:204B7000726F7220256400C052656164207273703A20256400C046C052656164204572720A
:204B90006F7220256400C046415454205273702064726F7070656420256400C0C5E8000013
:204BB0002DE9F8435FEA000920D100200DF0EAFE1CE048460FF020F882E1297C012940F049
:204BD0007C81C078002800F07F8178883978400078804900B88839704000B8800121388902
:204BF00000013881297748460FF026F809F16605687D002800F06E81697CDFF8380400292E
:204C100009F1860709F20F1809F1EC0609F59E74D3D0012939D002292BD003293FD0062979
:204C300000F08080072900F03E81082900F0A880092900F0B5800A2900F087800B2900F0A7
:204C500090800C2900F0B9800F2900F0D180112900F0F780122900F0C580142900F0FF80A0
:204C7000F02900F03981FC295BD0FE2900F03E819BE7297C01299CD1C078002800F0E880C5
:204C900048460EF0D9FF16212BE1297C012940F03E81C078002818BFB972A4D13BE1297C07
:204CB000012940F03F81807840B10021A971A078012803D1A17048460EF0C6FFB07B0128DB
:204CD00008D1002131607160B873062148460EF0ABFF8BE7F07B012818D148460EF0ACFFBA
:204CF0000021B9730120287048460EF0B9FF0120A87100207073717A99F8060006291ABF93
:204D100000221A2100220EF0AFFF6FE798F80000012844D0298B481E288380B2002800F026
:204D30002D81D6E0287C012840F00681B17A012916D148460EF080FF002030723073F0726D
:204D5000B073B072F073707350E7287C012840F00281F17A012902BF0020B8730B21B5D0AF
:204D7000F3E0297C012940F0FF808078002800F0FF800321AAE7002222210EF075FF56E180
:204D9000287C012840F00481307C022809F1FD0240F0078199F8061000200EF029FF22E704
:204DB000297C012940F009818078002800F00981B9F82210A9F81E1015E7287C012840F015
:204DD0000381717E012940F00681B07E0128F3D1318C0091F38B327F99F8061000200EF012
:204DF00003FF00E7297C012940F0058180782DE0287C012840F00381617801290FD1207F2D
:204E10000F281CBF00200DF0BDFD0020607000900023607F002200210EF0E2FEE3E6A07815
:204E3000012807D10021A17023220F2148460EF0FFFEDBE62078012840F0E5800021217068
:204E500044E7297C012940F0E480C0780028E5D1298B481E288380B2002890D039E0287C62
:204E7000012840F0DA8009F5AF76B07E810613D500F0DF000107B0760BD500F0F700B076C5
:204E9000308B0090B38AF28A718A99F806000EF0BFFE00203070A6E6810740F1C28000F07A
:204EB000FD00B076F5E748460EF0AEFE0128F2D00FE000200DF066FD0BE048460EF08CFE50
:204ED0002874E88A288304E0B9F80A00E98B884226D00020BDE8F283407A0028FAD098F8C0
:204EF000011048460EF074FE0120F3E7A87E0F28DFD1FC2148460EF097FE60890090238928
:204F1000E288A18899F806000EF09AFEE1E748460EF05AFED4E7B9F80A00B9898842D8D1EA
:204F30002821DEE748460EF04BFE2874E88A28830020B073F073CDE748460EF03DFE287408
:204F5000E88A28830020B072C4E7288B401E288380B298B1BDE748460EF02AFE2874E88A9A
:204F700028830020F072B5E748460EF01DFEA7E7288B401E288380B20028AAD1317A99F856
:204F9000060001297FF4F7AE22210EF071FE4EE048460EF005FE2874E88A288301203074CE
:204FB00097E7288B401E288380B2002891D199F8061022200EF01CFE39E048460EF04CFEFB
:204FD0007EE7288B401E45E70120F07648460EF0E3FD28747DE7288B401E288380B2002816
:204FF000F8D1308C0090F38B327F99F8061022200EF0FAFD1BE048460EF0CAFD60E748465C
:2050100007F0C0FA5CE7288B401E288380B270B15FE748460EF0B8FD52E7484608F080FEB9
:205030004EE7288B401E288380B20028F0D1222157E700BF5C4D00202DE9F047CC4C20784E
:205050000E46F10BADF1280DC90340F08480B00871D2E069216A72080ED2F00828BF86F09F
:20507000040680F08081700904D309F08FF886F0100678E1002077E1858861B904F1160046
:20509000BC4A00904FF6FF71022301200EF078FD0146216219B304A8009000270197022346
:2050B0000293FF220392E28A284608AB02F050FB58B99DF821009DF82020216A12EB002285
:2050D00004D0498928460BF027FB216AE28A08463B464FF6FF710EF04FFD01462162A069F7
:2050F000002918BF86F001062CD168B14368E1695BB18888002201219847A069E7694368D5
:20511000B888032100229847E16988880EF030FD04280BD10BF01EFD021C07D0A06928B1A0
:2051300043681BB1E0698088042198470DF01CFC86F0010617E10020014602F0F1FF18B1F7
:2051500086F00206012102E0022186F00206207806F0A0FD07E108F0FBF95FEA000800F0DC
:205170000081054628784FF0010AB03800F0EE80401E00F0E3801F3840F0ED80A878801FBF
:2051900000F0D880C01E00F0BE80401E4BD0401E33D0401E00F0C980801E40F0DF8068782D
:2051B00006281FD1B8F804000EF0DEFC071C19D0A07B401E12D0401E0ED0401E12D1002130
:2051D00040F209400A4601F0EFFAB8F80410387805220EF0C5FC05E0A988F8E7A8887979A9
:2051F00003F0BEFCA069002800F0B8804368002B00F0B4806A78022182E00DF03FFF0028D5
:2052100000F0AC80A06948B107683FB12869009069892A7B6B7BE81CB8479FE06889514659
:205230000EF09AFC9AE068780027002858D1A879400855D3E069002852D10DF11200394644
:205250000E220EF01BF9A8880EF08EFC071C00F08580686948B97879B91D06228DF81800CE
:205270000DF112000DF006FD1DE0D5F8149099F81000062209F111018DF818000DF112001E
:205290000DF0F8FC07F10C00B91D06220DF0F2FCB81D062209F111010DF0ECFC99F8100091
:2052B00040F002007871A8799DF81F10C0F3800008438DF81F00A879000905D39DF81F0006
:2052D00040F008008DF81F000DF11200414602F027FF20B92078022106F0DCFC41E0152774
:2052F000A06900283AD04368002B37D0A8886A7851469847002F31D0A06903213A46436876
:20531000A88898472AE0E878291D002207F096F80A2823DA410001EB800005F10C022530E2
:205330000421C0B205F0BEFB18E0A888297B08F09BFB13E0A8880AF0C9FD0FE02F7957B934
:205350006888E9882A890BF0E7F904E0297905F108000EF055FCBAF1000F02D028460DF084
:20537000A1F986F40046B0B20AB0BDE8F087C04618100020C45B01002DE9F84FC24DDFF8DA
:205390000C832968DFF808A3887C0DF07FFD2A6800210446517104F12E062868BD4D0BF061
:2053B00033F90120607104F5937998F80100401C88F801001827802008F038FD20606969EE
:2053D000C160B548018949007180C079B1884000307049003089B1800001308131462046C7
:2053F0000EF0B6FB0520A08120460EF0ADFB28680EF0A6FB062210F8081FC1F3801189F850
:205410000010811C04F590700DF034FC2968A34D0A680020107141F60202A1792868794374
:2054300042520022A17979430144001D4A80A17979434250012120460EF07EFBA279296891
:205450007A4311448873A1792868794308440021C173A179286879430844807BF072DAF847
:205470000020A079296802EB401278430844026101F11400A1798A4A79434250A0790EF050
:2054900057FBA179DAF8002049015050A1794B01D05820B9072120460EF09AFBF0E0DFF885
:2054B00004B2DBF8000000EB01100EF03DFBA179DBF80020DAF80000DFF8ECB102EB0112CE
:2054D000031D49015A50021DA3795B0104F16801D2580A60A279520183588B60DBF81410F4
:2054F000097894F806E0CA074CBF102200228B074CBF202300235FEA417C4CBF4FF0400CDA
:205510004FF0000C09074CBF802100211A434CEA020200EB4E100A4342F00F020272DAF89D
:205530000010A07901EB40110B224A72DAF80000A17900EB411004228272DAF80010A079CF
:2055500001EB401059490A78012A02D10123C37203E0DBF828100A78C272DAF80000A279F3
:20557000636A00F10C0152018B50A17900EB4110A16A0174DAF80000A17900EB4110A16A19
:20559000090A4174DAF80000A17900EB4110A16A090C817408214648007806F07BFB2168D2
:2055B000A2792868CB687A4302449360CA680A61CA688A6000F10C02A17979430C30525C8F
:2055D00002F0EF024254A0792968784301F10C020C31125C02F07F020A54A07929687843FC
:2055F00001F10C020C31125C02F0F00242F002020A54A179286879430844417B01F0F00128
:2056100041F001014173B688DBF830C0DAF80010A37940F6C4104643DCF8000001F1140225
:205630005B01361AA6F51676D650A27901EB4210C17C01F0F00141F00401C174A1792868D4
:205650004F432168C0194860B9F83A001B2804BFB9F83C101B2909D1B9F83E00B0F5A47FDB
:2056700004BFB4F86611B1F5A47F03D0142120460EF0EAFA0F4908200870A17988F8021077
:20569000BDE8F14FFBF79ABA184F0020684E0020844E0020AC4B0020844C0020804E00208B
:2056B0005C4D00208C4E0020FC5A0100734F00206E4F00206F4F0020BB482DE9F84F00259E
:2056D000BA4CB849056094F8E200002800F06581012800F02F81B64E02283CD0032840F084
:2056F0005C8151F8250CD4F8B8100029A0F5C060C4F8D400B8BF49420028B8BF404281425B
:2057100026DA4FF08057D7F8A4014568B4F8BC0030214FF47F42082300903046A847D7F896
:20573000A4014568B4F8C00004214FF4F802122300903046A847D7F8A401B4F8D070456802
:2057500020214FF440620A2330460097A847012584F8D8501CE151F8258C0DF03CFD2F467E
:2057700000B901273946934F38680028FCD0B146012609F10409D9F82CA03E6009B10DF02C
:2057900030FDCAF30720C4F8BC000DF024FDAA4600B9B2463B68002BFCD0D9F800B0BAF1EB
:2057B000000F3E6001D00DF01CFDCBF38440C4F8C0000DF010FDAA4600B9B2463B68002BCE
:2057D000FCD0D9F81C90BAF1000F3E6001D00DF008FDC9F38120C4F8D000B8F5C061C4F8D2
:2057F000B81000F09C8094F8D80068B9C4F8D410D4F8C000C4F8C800D4F8BC70C4F8C470A8
:20581000D4F8D030C4F8CC30D4F8D400D4F8BC30002854BF02226FF0010204F1C8010F68A6
:2058300000EB40008018421000EB927207EBA2000860D4F8C810C4F8C43000291CDD1E299B
:205850003CDDD4F8CC0030B93429B4BF15391E21C4F8C81025E02A29BABFD4F8C8000B3805
:205870001E20C4F8C800D4F8C4003F28B4BF401C3F20C4F8C4001FE0D4F8CC00032812D00D
:2058900011F10B0FC6BFD4F8C8000B30301CC4F8C800D4F8C4000028C4BF401E051CC4F842
:2058B000C450032508E011F1150FC6BFD4F8C8001530301CC4F8C800C4F8CC504FF0805772
:2058D000D7F8A401B4F8C43030214FF47F424568374800930823A847D7F8A40104214FF49A
:2058F00000321123456832480096A847B4F8C860D7F8A40104214FF4F802122345682C4886
:205910000096A847D7F8A40120214FF440620A23B4F8CC60456826480096A84701E084F856
:20593000D85040F2FF50404502D8801C40452FD2082030E051F8251C1F4F4BF2F520484320
:20595000060A3868C0F3814001280CD11B480068006880470BF03AF90DF049FC3111C01091
:20597000484306EBE03694F8E50030B91448006820F07F403618760801E084F8E5501148E1
:20599000310C0660012741600F4D8760287808B90B2000E0052084F8E40003F019F8BDE8AE
:2059B000F88FC0462D400C402C500C40A012002000A00C4000800C40B43F0050EC010010FF
:2059D000102009403C600C405D5901002DE9F04F09AFADF13C0D08900A92388809911E46B9
:2059F000ADF81800101C08BF002000F06C81017800274FF0010B401C4FF0FF39B846DA460E
:205A10000A9058E1252940F04D810178401C0A902D2918BFADF8068004D10178ADF806B0E7
:205A3000401C0A9030291CBF4246434604D10178401C5A465B460A902A29CDF800804D466B
:205A500017D1049330680A9BCDF80890C01C20F00300001D306050F8044C1978002C009498
:205A700003F101000A9018D5ADF806A06442009413E044460AE0600000EBC4004018A0F1B6
:205A900030040A9801780094401C0A90302901DB3A29F0DBCDF8089004932E2929D10178FC
:205AB000401C2A290A9011D13168CDF80880C91C21F00301091D316051F8045C002D48BF37
:205AD000454601782B46401C0A9011E0454643460AE0680000EBC5004018A0F130050A9884
:205AF00001782B46401C0A90302901DB3A29F0DB02930AB1224604926C2904D04C2918BF50
:205B1000ADF8048004D10178ADF804A0401C0A900BA8CDF80C800FAB07906429059379D0FC
:205B3000692977D0BDF818C0752965D0782961D06F295DD0702946D0632936D073291AD0BE
:205B50000A98401E0A900998012812D961490C68B5F1FF3F03D0A84288BF6D1C00D8099DD9
:205B7000029508A80AA932466B46A0473F18039865E0454617E03068C01C20F00300001DAE
:205B9000306050F8040CBCF1010F014608B94FA0014607910DF0B6F90390B5F1FF3F4FD038
:205BB000A8424DD9039528464AE03068C01C20F00300001D306010F8040C8DF82C005D46F5
:205BD000039558463CE0082035680490E81C20F00300001D306050F8041C082210230FA8CA
:205BF00008F00EFF401E079040210170079823E0082302E0102300E00A233068C01C20F056
:205C10000300001D306050F8041CAA42BCBF2A1C04920DE03068C01C20F00300001D3060F8
:205C300050F8041CAA42BCBF2A1C04926FF009030FA808F0E5FE07900599081A0390009C26
:205C5000241ABDF8065000945DB906E008A8202109AA0CF0AAF97F1C009C641E0094F5D501
:205C70000398401EB0F1FF3F03900FD1BDF8060001281CD10098401E009018D408A8202195
:205C900009AA0CF092F900987F1CF4E70798017809AA08A80CF089F90798401C0790039886
:205CB0007F1CDEE708A809AA0CF07FF97F1C0A980178401C0A9000297FF4A4AE089808B1AA
:205CD0004146017038460FB0BDE8F08F286E756C6C2900C0B85A01002DE9F843B648B74D29
:205CF0000178002984B04FF01D0807D0052908D0062900F0A780072918BF082900F0598135
:205D100051E1AF4E3168086800F10807387810F00F0F1CBF00F00F01062908D000F00F028A
:205D3000022A1CBF00F00F00012840F042810622B91C68460CF09EFF3878A24CC0F3801903
:205D500000F00F0001283BD1062207F1080102A80CF090FF3F78FF0902A938460DF0E0FEDE
:205D7000D0B12068807C022818BF03285DD105F10D0102A80DF0D0FE002856D02168012043
:205D9000C8720622707940F00400707102A920680C300CF06FFF13E029788F4210D106224C
:205DB000691C02A80CF06EFC50B12878717960F38201717106222068691C0C300CF05AFF35
:205DD000694648460DF0ACFE00282ED070696946001F0DF09DFE002827D1294668460DF030
:205DF00093FE01462068807CFF291FD008FB01F16C18002818BF02280BD0012818BF032878
:205E100013D16A5C7069611C001F0DF079FE10280BD070696B46E21D2146001F0DF06CFE56
:205E300006226946E01D0CF025FFC2E0002818BF0228FAD1706901234A466946001F0DF070
:205E500057FEB6E0604E3068016801F10807387810F00F0F1CBF00F00F00012820D10622AD
:205E7000B91C68460CF006FF3878DFF86091C0F3801400F00F00012846D1062207F1080167
:205E900002A80CF0F7FE3F78FF0902A938460DF047FE20B3D9F80000C07A022818BF032823
:205EB0007CD105F10D000DF01FFE002876D105F10D0102A80DF030FE00286FD0D9F80000E8
:205ED000062202A90C300CF0D5FE707940F004007071062202A9E81D0CF0CCFE14E02878A4
:205EF000874211D10622691C02A80CF0CBFB58B12878717960F3820171710622D9F800008A
:205F1000691C0C300CF0B6FE694620460DF008FE002843D0294668460DF0F6FDFF283DD06C
:205F3000D9F8001008FB00F7887AEC1910BB887C0CF0ACFF814699F82601022811BF032855
:205F5000E95D00F00100814228D109F5907506222946601C0CF096FB00B3012089F826011F
:205F70000622707940F008007071694628460CF081FE0EE03069EA5D611C001F0DF0C0FD2B
:205F900010280BD030696B46E21D2146001F0DF0B3FD06226946E01D0CF06CFE31680A681D
:205FB0000020107105E000200CF0ECFC86200DF097FD05B0BDE8F0836F4F0020AC45002054
:205FD000D04B0020144F0020AC4B0020184F00202DE9FE4F0F469C4C0168E1624168806878
:205FF000E0609A48A16080479948E16A0160A168DFF87CB24160E168DFF87082816095499A
:20601000002FA246C1606AD03D68E8788DF8080028798DF8090002A80DF05EFDA86808B172
:206030008D490160E86808B18C4901608C4C287820706878BE686070A878B268A070317809
:20605000A2607368E1702E696360EA6926627968E2620868E06068697B686062A8699E686B
:20607000A062286A20631EB900200CF08BFC00E066617868C06818B900200CF083FC00E084
:20609000A0617868006918B900200CF07BFC00E0E0617868406818B900200CF073FC00E05D
:2060B000206128692062F86881680E6806B96E4E6C494FF001094E60C66881F801902EB937
:2060D00000200CF05FFCF868454601E045462E6000685C46FE68A0617068E06106E00020C4
:2060F0000CF050FC4FF001095C464546286861494668621C04F114035020B04710B12868A8
:2061100080688047DAF8080080475C4F0026834669467E7058483E700422206130460BF082
:2061300059FB0098B0F5801F0CD020B90BF0A6FE04F022F808E00AF051FC0CF0D9FE042097
:20615000788001E00BF09AFE4D4FB0462868C7F808808069A660804778604A48468080F8FC
:20617000009014200CF09AFFFF211422A0620DF085F9E01CFF2102220DF080F914200CF0FD
:206190008DFF414908600868142231460DF076F93046FDF743FA48460AF0AEFD3B48018802
:2061B000FF2906D1022101807822001D31460DF065F903200DF08CFC04200DF085FC052034
:2061D0000DF07EFC06200DF077FC072009F098FA2F4E0820307006F124000DF069FC09F035
:2061F000FBFC06F1360705200A213A460CF005FB38B14046C0F10901401C07F8011B0A28C5
:20621000F8DB3078102105F045FD2F68214909200DF10A0201AB7D68087010204146A847A8
:20623000A06ADAF80C10E2690A270A309DF80A307F1E00F8013BF9D1921E5846E2618847D6
:2062500002F03AF9BDE8FE8FB413002041490010F8440020C83C0100591D01007D2B0100D5
:20627000C01700204C1B002043FD0000F01B0020E418002079230100552C0100E41B0020CB
:20629000102700203C1700208C27002068150020181000209D270020F0B5904E904C37787A
:2062B000904A914D914B92490D2F85B041F2064000F20B81DFE817F00F01090109010901FB
:2062D00009010E00490009018900C200C200E600E600ED0087494E881E80022E15602AD991
:2062F00040F20443F61A24D0761E24D040F2FB33F61A17D04FF44063F61A1CD0761E18D0D4
:20631000761E012E17D9361F13D0761E13D0761E0FD04FF47E73F61A0DD0761E09D0F61EF6
:2063300007D00DE04880887B25280CBF2720401E887371483DE000200CF024FB852076E0FA
:2063500000200CF01FFB842071E06C494E881E80022E15602FD940F20443F61A28D0761E17
:2063700029D040F2FB33F61A1BD04FF44063F61A21D0761E1CD0761E012E1CD9B61E0ED0E8
:20639000B61E15D0761E16D0761E11D04FF47E73F61A10D0761E0BD0F61E09D010E0584835
:2063B00007E04880887B25280CBF2720401E8873544810603DE000200CF0E4FA852036E085
:2063D00000200CF0DFFA842031E04F488178FF290CD0182041434D48156040F204460068C5
:2063F000851C6D5A1D80AD1B012D494B73D94FF47F76AD1B11D04FF44066AD1B11D0AD1E74
:20641000012D84BFED1E012D0BD9AD1E012D62D940F2FD36AD1B06D103E0801C41F20245AD
:206430004552136005E000200CF0ACFA85200DF057FB2078012105F02DFC4CE040F204422B
:206450004888188090421CBF41F20842904242D041F60402904217D12E4A92E8380002A8EB
:206470002D4A80E838002D4C2D48256800680023CDE9002355F8506F2A4B02AAB0472A497F
:20649000088028E04888188000200CF07BFA85201FE04888188002280DD940F20442801A35
:2064B00019D040F6FC72801A05D0083813D04FF47F72801AE8D1887B801CC2B2B52AA8BFCD
:2064D000662088730020488005E000200CF05AFA84200DF005FB05B0F0BD00BF6F4F00204E
:2064F0006E4F0020204F0020F9330100504F0020CC4C00209C4C002039D800006C4C00200B
:2065100089530000A9D70000684E0020804E0020697B00005C5B010002000080F04E0020CF
:20653000EC4E0020B9140100424F002092482DE9F04F01789248ADF1140D31B98F4A1778DF
:20655000002F04BF071C002008D00746387B0323401CB0FBF3F25A43801AC0B2387300298F
:2065700014BFDFF820C2DFF820C2884C04F1C602117821F00F0141F0040111703E6AB6F87E
:20659000443140F6C41202FB03F1C4F8C810B6F84651AB420FD094F854306A4323F00F03F2
:2065B00043F0030384F854308A4222653CBF891AC4F8C81005E094F8541021F00F0184F89B
:2065D0005410C019057E61460A2DD8BF682003DD242DD4BF6A20002096F8D030DFF8B0B1BA
:2065F000012B58D0022B56D0002B40F0C280252D4FF0000808D0262D06D0272D1CBF00EB93
:20661000450084F8860001D184F8865096F8FEA0D4F8880006F1FA0181601F23837106F57B
:206630009172026194F8342094F884004FF00209012368F3030069F3030284F8840094F83B
:20665000841084F8342063F3C71184F8841094F8341063F3C71184F83410FCF755FB252D35
:20667000206305D1FCF750FB44F620614018206300F52F608DF80C90464B0290C4468DE896
:206690000018306804F1280102AAFCF7BDFB386A80F8FEA06DE0252D06D0262D04D0272D1D
:2066B0001CBF00EB4500051C84F8565004F16000E0654868D6F81C71826807EA0200364A7A
:2066D000A2F120034F681860BD68D6F81C7127EA0500186196F8F400207006F1F40786F834
:2066F000F40048686761037800F10C01092009F0BBF82B4F2B4D29494FF4007001233A4615
:206710002035443A28600E2009F0AEF84FF48040286040F2A1433B60FCF7F6FA0225D4F82F
:20673000CC108DF80C504018029094F8241065F3030184F8241094F8240040F0800084F8FA
:206750002400FCF7E1FA96F8D010012905D1029943F2B06289180291801820624FF0000C4E
:206770008DE800180B4B306804F1180102AAFCF74BFB05B0BDE8F08F1E1B00202A1B002004
:20679000F0040020881A0020781A0020100E002002000080B5CD0000B0200240101B0020C2
